{
  "contractName": "Bank",
  "abi": [
    {
      "inputs": [
        {
          "internalType": "contract BUSDToken",
          "name": "_token",
          "type": "address"
        }
      ],
      "stateMutability": "nonpayable",
      "type": "constructor"
    },
    {
      "anonymous": false,
      "inputs": [
        {
          "indexed": true,
          "internalType": "address",
          "name": "user",
          "type": "address"
        },
        {
          "indexed": false,
          "internalType": "uint256",
          "name": "amount",
          "type": "uint256"
        },
        {
          "indexed": false,
          "internalType": "uint256",
          "name": "interest",
          "type": "uint256"
        },
        {
          "indexed": false,
          "internalType": "uint256",
          "name": "depositeTime",
          "type": "uint256"
        }
      ],
      "name": "HarvestBUSD",
      "type": "event"
    },
    {
      "anonymous": false,
      "inputs": [
        {
          "indexed": true,
          "internalType": "address",
          "name": "user",
          "type": "address"
        },
        {
          "indexed": false,
          "internalType": "uint256",
          "name": "amount",
          "type": "uint256"
        },
        {
          "indexed": false,
          "internalType": "uint256",
          "name": "timestart",
          "type": "uint256"
        }
      ],
      "name": "Stake",
      "type": "event"
    },
    {
      "inputs": [
        {
          "internalType": "address",
          "name": "",
          "type": "address"
        }
      ],
      "name": "isDeposited",
      "outputs": [
        {
          "internalType": "bool",
          "name": "",
          "type": "bool"
        }
      ],
      "stateMutability": "view",
      "type": "function",
      "constant": true
    },
    {
      "inputs": [
        {
          "internalType": "address",
          "name": "",
          "type": "address"
        }
      ],
      "name": "stakeBalanceOf",
      "outputs": [
        {
          "internalType": "uint256",
          "name": "",
          "type": "uint256"
        }
      ],
      "stateMutability": "view",
      "type": "function",
      "constant": true
    },
    {
      "inputs": [
        {
          "internalType": "address",
          "name": "",
          "type": "address"
        }
      ],
      "name": "stakeStart",
      "outputs": [
        {
          "internalType": "uint256",
          "name": "",
          "type": "uint256"
        }
      ],
      "stateMutability": "view",
      "type": "function",
      "constant": true
    },
    {
      "inputs": [],
      "name": "stakeBUSD",
      "outputs": [],
      "stateMutability": "payable",
      "type": "function",
      "payable": true
    },
    {
      "inputs": [],
      "name": "harvestBUSD",
      "outputs": [],
      "stateMutability": "payable",
      "type": "function",
      "payable": true
    }
  ],
  "bytecode": "0x6080604052670de0b6b3a764000060045534801561001c57600080fd5b506040516106a53803806106a583398101604081905261003b91610060565b600080546001600160a01b0319166001600160a01b039290921691909117905561008e565b600060208284031215610071578081fd5b81516001600160a01b0381168114610087578182fd5b9392505050565b6106088061009d6000396000f3fe60806040526004361061004a5760003560e01c806312a7f6611461004f578063737320241461008f57806377d7164a146100cf57806387f73109146100d9578063af46aa08146100e1575b600080fd5b34801561005b57600080fd5b5061007c61006a366004610500565b60026020526000908152604090205481565b6040519081526020015b60405180910390f35b34801561009b57600080fd5b506100bf6100aa366004610500565b60036020526000908152604090205460ff1681565b6040519015158152602001610086565b6100d761010e565b005b6100d7610392565b3480156100ed57600080fd5b5061007c6100fc366004610500565b60016020526000908152604090205481565b3360009081526003602052604090205460ff166101725760405162461bcd60e51b815260206004820152601860248201527f4572726f722c206e6f2070726576696f7573207374616b65000000000000000060448201526064015b60405180910390fd5b33600090815260016020908152604080832054600290925282205490919061019a90426105a5565b33600090815260016020526040812054919250906101c090662386f26fc1000090610566565b6101ce906301e38597610586565b905060006101dc8284610586565b60005460405163095ea7b360e01b8152336004820152602481018390529192506001600160a01b03169063095ea7b390604401602060405180830381600087803b15801561022957600080fd5b505af115801561023d573d6000803e3d6000fd5b505050506040513d601f19601f82011682018060405250810190610261919061052e565b506000546040516323b872dd60e01b8152336004820152306024820152604481018390526001600160a01b03909116906323b872dd90606401602060405180830381600087803b1580156102b457600080fd5b505af11580156102c8573d6000803e3d6000fd5b505050506040513d601f19601f820116820180604052508101906102ec919061052e565b6103385760405162461bcd60e51b815260206004820152601b60248201527f4572726f722c2063616e6e6f74207265636569766520746f6b656e00000000006044820152606401610169565b3360008181526002602090815260409182902042905581518781529081018490529081018590527fc74bfbfad55000f4e1c93ea6cfd564fb17f15267c78375585359130e5acb1a699060600160405180910390a250505050565b3360008181526003602052604090205460ff16156103ea5760405162461bcd60e51b8152602060048201526015602482015274115c9c9bdc8b08185b1c9958591e481cdd185ad959605a1b6044820152606401610169565b60045434101561045a5760405162461bcd60e51b815260206004820152603560248201527f4572726f722c207374616b6520616d6f756e742073686f756c6420626520677260448201527419585d195c8bd95c5d585b081d1bc80c48109554d1605a1b6064820152608401610169565b6001600160a01b03811660009081526001602052604090205461047e90349061054e565b6001600160a01b038216600081815260016020818152604080842095909555600281528483204290819055600390915291849020805460ff19169091179055915190917f5af417134f72a9d41143ace85b0a26dce6f550f894f2cbc1eeee8810603d91b6916104f591348252602082015260400190565b60405180910390a250565b600060208284031215610511578081fd5b81356001600160a01b0381168114610527578182fd5b9392505050565b60006020828403121561053f578081fd5b81518015158114610527578182fd5b60008219821115610561576105616105bc565b500190565b60008261058157634e487b7160e01b81526012600452602481fd5b500490565b60008160001904831182151516156105a0576105a06105bc565b500290565b6000828210156105b7576105b76105bc565b500390565b634e487b7160e01b600052601160045260246000fdfea26469706673582212205d0f4d989fddb9c4792e8b7f877b9abd5a477f50370c5e86e94a5afdaac7120664736f6c63430008040033",
  "immutableReferences": {},
  "source": "// SPDX-License-Identifier: MIT\r\n\r\npragma solidity >=0.5.0 <0.9.0;\r\n\r\n// import BUSD Token\r\n// imported \r\nimport './BUSDToken.sol';\r\n\r\ncontract Bank {\r\n    // assign BUSD Token contract to variable\r\n    BUSDToken private bUSDToken;\r\n\r\n    // add mappings\r\n    mapping(address => uint) public stakeBalanceOf; // how much player has staked\r\n    mapping(address => uint) public stakeStart; // when player has stake\r\n    mapping(address => bool) public isDeposited; // check if player has staked or withdrawal\r\n\r\n    // add events\r\n    event Stake(address indexed user, uint amount, uint timestart);\r\n    event HarvestBUSD(address indexed user, uint amount, uint interest, uint depositeTime);\r\n    \r\n    // add constants\r\n    uint private MIN_AMOUNT = 1e18;   \r\n\r\n    // add events\r\n    \r\n\r\n    // pass as constructor argument deployed token contract\r\n    constructor(BUSDToken _token) {\r\n        // assign token deployed contract to variable\r\n        bUSDToken = _token;\r\n    }\r\n\r\n    // stake on the contract\r\n    function stakeBUSD() payable public {\r\n        address sender = msg.sender;\r\n        //check if msg.sender didn't already deposited funds\r\n        require(!isDeposited[sender], \"Error, already staked\");\r\n        //check if msg.value is >= than 0.01 ETH\r\n        require(msg.value >= MIN_AMOUNT, \"Error, stake amount should be greater/equal to 1 BUSD\");\r\n        //increase msg.sender ether deposit balance\r\n        stakeBalanceOf[sender] = stakeBalanceOf[sender] + msg.value;\r\n        //start msg.sender hodling time\r\n        stakeStart[sender] = block.timestamp;\r\n        //set msg.sender deposit status to true\r\n        isDeposited[sender] = true;\r\n        //emit Deposit event\r\n        emit Stake(sender, msg.value, block.timestamp);\r\n    }\r\n\r\n    // customer harvest their rewards\r\n    function harvestBUSD() payable public {\r\n        // check if msg.sender deposit status is true\r\n        require(isDeposited[msg.sender], \"Error, no previous stake\");\r\n        // assing msg.sender BUSD deposit balance to variable for event\r\n        uint userBalance = stakeBalanceOf[msg.sender];\r\n        //check user's hodl time\r\n        uint stakeTime = block.timestamp - stakeStart[msg.sender];\r\n        // total second = 31557600s (365.25 days per year)\r\n        // when user deposite 0.01ETH for a year, our bank wanna send 10% per year for their interest\r\n        // 1ETH = 1e18, 0.01ETH = 1e16, so 10% - 1e15\r\n        // calc interest per second\r\n        // 1e15 / 31557600s = 31688087 wei\r\n        // calc accrued interest\r\n        uint interestPerSecond = 31688087 * (stakeBalanceOf[msg.sender] / 1e16);\r\n        uint interest = stakeTime * interestPerSecond;\r\n\r\n        // send reward(BUSD) to user\r\n        bUSDToken.approve(msg.sender, interest);\r\n        require(bUSDToken.transferFrom(msg.sender, address(this), interest), 'Error, cannot receive token');\r\n\r\n        // update stakeStart timestamp\r\n        stakeStart[msg.sender] = block.timestamp;\r\n\r\n        // emit harvestBUSD\r\n        emit HarvestBUSD(msg.sender, userBalance, interest, stakeTime);       \r\n    }\r\n\r\n}\r\n\r\n\r\n    ",
  "sourcePath": "F:/workBlockchain/demo/busd_stacking/contracts/Bank.sol",
  "compiler": {
    "name": "solc",
    "version": "0.8.4+commit.c7e474f2.Emscripten.clang"
  },
  "schemaVersion": "3.4.1",
  "updatedAt": "2021-05-10T23:15:09.384Z",
  "networkType": "ethereum",
  "devdoc": {
    "kind": "dev",
    "methods": {},
    "version": 1
  },
  "userdoc": {
    "kind": "user",
    "methods": {},
    "version": 1
  }
}