{
  "contractName": "BUSDToken",
  "abi": [
    {
      "inputs": [],
      "stateMutability": "nonpayable",
      "type": "constructor"
    },
    {
      "anonymous": false,
      "inputs": [
        {
          "indexed": true,
          "internalType": "address",
          "name": "addr",
          "type": "address"
        }
      ],
      "name": "AddressFrozen",
      "type": "event"
    },
    {
      "anonymous": false,
      "inputs": [
        {
          "indexed": true,
          "internalType": "address",
          "name": "addr",
          "type": "address"
        }
      ],
      "name": "AddressUnfrozen",
      "type": "event"
    },
    {
      "anonymous": false,
      "inputs": [
        {
          "indexed": true,
          "internalType": "address",
          "name": "owner",
          "type": "address"
        },
        {
          "indexed": true,
          "internalType": "address",
          "name": "spender",
          "type": "address"
        },
        {
          "indexed": false,
          "internalType": "uint256",
          "name": "value",
          "type": "uint256"
        }
      ],
      "name": "Approval",
      "type": "event"
    },
    {
      "anonymous": false,
      "inputs": [
        {
          "indexed": true,
          "internalType": "address",
          "name": "oldAssetProtectionRole",
          "type": "address"
        },
        {
          "indexed": true,
          "internalType": "address",
          "name": "newAssetProtectionRole",
          "type": "address"
        }
      ],
      "name": "AssetProtectionRoleSet",
      "type": "event"
    },
    {
      "anonymous": false,
      "inputs": [
        {
          "indexed": true,
          "internalType": "address",
          "name": "oldDelegate",
          "type": "address"
        }
      ],
      "name": "BetaDelegateUnwhitelisted",
      "type": "event"
    },
    {
      "anonymous": false,
      "inputs": [
        {
          "indexed": true,
          "internalType": "address",
          "name": "newDelegate",
          "type": "address"
        }
      ],
      "name": "BetaDelegateWhitelisted",
      "type": "event"
    },
    {
      "anonymous": false,
      "inputs": [
        {
          "indexed": true,
          "internalType": "address",
          "name": "oldWhitelister",
          "type": "address"
        },
        {
          "indexed": true,
          "internalType": "address",
          "name": "newWhitelister",
          "type": "address"
        }
      ],
      "name": "BetaDelegateWhitelisterSet",
      "type": "event"
    },
    {
      "anonymous": false,
      "inputs": [
        {
          "indexed": true,
          "internalType": "address",
          "name": "from",
          "type": "address"
        },
        {
          "indexed": true,
          "internalType": "address",
          "name": "to",
          "type": "address"
        },
        {
          "indexed": false,
          "internalType": "uint256",
          "name": "value",
          "type": "uint256"
        },
        {
          "indexed": false,
          "internalType": "uint256",
          "name": "seq",
          "type": "uint256"
        },
        {
          "indexed": false,
          "internalType": "uint256",
          "name": "fee",
          "type": "uint256"
        }
      ],
      "name": "BetaDelegatedTransfer",
      "type": "event"
    },
    {
      "anonymous": false,
      "inputs": [
        {
          "indexed": true,
          "internalType": "address",
          "name": "addr",
          "type": "address"
        }
      ],
      "name": "FrozenAddressWiped",
      "type": "event"
    },
    {
      "anonymous": false,
      "inputs": [
        {
          "indexed": true,
          "internalType": "address",
          "name": "oldProposedOwner",
          "type": "address"
        }
      ],
      "name": "OwnershipTransferDisregarded",
      "type": "event"
    },
    {
      "anonymous": false,
      "inputs": [
        {
          "indexed": true,
          "internalType": "address",
          "name": "currentOwner",
          "type": "address"
        },
        {
          "indexed": true,
          "internalType": "address",
          "name": "proposedOwner",
          "type": "address"
        }
      ],
      "name": "OwnershipTransferProposed",
      "type": "event"
    },
    {
      "anonymous": false,
      "inputs": [
        {
          "indexed": true,
          "internalType": "address",
          "name": "oldOwner",
          "type": "address"
        },
        {
          "indexed": true,
          "internalType": "address",
          "name": "newOwner",
          "type": "address"
        }
      ],
      "name": "OwnershipTransferred",
      "type": "event"
    },
    {
      "anonymous": false,
      "inputs": [],
      "name": "Pause",
      "type": "event"
    },
    {
      "anonymous": false,
      "inputs": [
        {
          "indexed": true,
          "internalType": "address",
          "name": "oldSupplyController",
          "type": "address"
        },
        {
          "indexed": true,
          "internalType": "address",
          "name": "newSupplyController",
          "type": "address"
        }
      ],
      "name": "SupplyControllerSet",
      "type": "event"
    },
    {
      "anonymous": false,
      "inputs": [
        {
          "indexed": true,
          "internalType": "address",
          "name": "from",
          "type": "address"
        },
        {
          "indexed": false,
          "internalType": "uint256",
          "name": "value",
          "type": "uint256"
        }
      ],
      "name": "SupplyDecreased",
      "type": "event"
    },
    {
      "anonymous": false,
      "inputs": [
        {
          "indexed": true,
          "internalType": "address",
          "name": "to",
          "type": "address"
        },
        {
          "indexed": false,
          "internalType": "uint256",
          "name": "value",
          "type": "uint256"
        }
      ],
      "name": "SupplyIncreased",
      "type": "event"
    },
    {
      "anonymous": false,
      "inputs": [
        {
          "indexed": true,
          "internalType": "address",
          "name": "from",
          "type": "address"
        },
        {
          "indexed": true,
          "internalType": "address",
          "name": "to",
          "type": "address"
        },
        {
          "indexed": false,
          "internalType": "uint256",
          "name": "value",
          "type": "uint256"
        }
      ],
      "name": "Transfer",
      "type": "event"
    },
    {
      "anonymous": false,
      "inputs": [],
      "name": "Unpause",
      "type": "event"
    },
    {
      "inputs": [],
      "name": "EIP712_DOMAIN_HASH",
      "outputs": [
        {
          "internalType": "bytes32",
          "name": "",
          "type": "bytes32"
        }
      ],
      "stateMutability": "view",
      "type": "function",
      "constant": true
    },
    {
      "inputs": [],
      "name": "assetProtectionRole",
      "outputs": [
        {
          "internalType": "address",
          "name": "",
          "type": "address"
        }
      ],
      "stateMutability": "view",
      "type": "function",
      "constant": true
    },
    {
      "inputs": [],
      "name": "betaDelegateWhitelister",
      "outputs": [
        {
          "internalType": "address",
          "name": "",
          "type": "address"
        }
      ],
      "stateMutability": "view",
      "type": "function",
      "constant": true
    },
    {
      "inputs": [],
      "name": "decimals",
      "outputs": [
        {
          "internalType": "uint8",
          "name": "",
          "type": "uint8"
        }
      ],
      "stateMutability": "view",
      "type": "function",
      "constant": true
    },
    {
      "inputs": [],
      "name": "name",
      "outputs": [
        {
          "internalType": "string",
          "name": "",
          "type": "string"
        }
      ],
      "stateMutability": "view",
      "type": "function",
      "constant": true
    },
    {
      "inputs": [],
      "name": "owner",
      "outputs": [
        {
          "internalType": "address",
          "name": "",
          "type": "address"
        }
      ],
      "stateMutability": "view",
      "type": "function",
      "constant": true
    },
    {
      "inputs": [],
      "name": "paused",
      "outputs": [
        {
          "internalType": "bool",
          "name": "",
          "type": "bool"
        }
      ],
      "stateMutability": "view",
      "type": "function",
      "constant": true
    },
    {
      "inputs": [],
      "name": "proposedOwner",
      "outputs": [
        {
          "internalType": "address",
          "name": "",
          "type": "address"
        }
      ],
      "stateMutability": "view",
      "type": "function",
      "constant": true
    },
    {
      "inputs": [],
      "name": "supplyController",
      "outputs": [
        {
          "internalType": "address",
          "name": "",
          "type": "address"
        }
      ],
      "stateMutability": "view",
      "type": "function",
      "constant": true
    },
    {
      "inputs": [],
      "name": "symbol",
      "outputs": [
        {
          "internalType": "string",
          "name": "",
          "type": "string"
        }
      ],
      "stateMutability": "view",
      "type": "function",
      "constant": true
    },
    {
      "inputs": [],
      "name": "initialize",
      "outputs": [],
      "stateMutability": "nonpayable",
      "type": "function"
    },
    {
      "inputs": [],
      "name": "initializeDomainSeparator",
      "outputs": [],
      "stateMutability": "nonpayable",
      "type": "function"
    },
    {
      "inputs": [],
      "name": "totalSupply",
      "outputs": [
        {
          "internalType": "uint256",
          "name": "",
          "type": "uint256"
        }
      ],
      "stateMutability": "view",
      "type": "function",
      "constant": true
    },
    {
      "inputs": [
        {
          "internalType": "address",
          "name": "_to",
          "type": "address"
        },
        {
          "internalType": "uint256",
          "name": "_value",
          "type": "uint256"
        }
      ],
      "name": "transfer",
      "outputs": [
        {
          "internalType": "bool",
          "name": "",
          "type": "bool"
        }
      ],
      "stateMutability": "nonpayable",
      "type": "function"
    },
    {
      "inputs": [
        {
          "internalType": "address",
          "name": "_addr",
          "type": "address"
        }
      ],
      "name": "balanceOf",
      "outputs": [
        {
          "internalType": "uint256",
          "name": "",
          "type": "uint256"
        }
      ],
      "stateMutability": "view",
      "type": "function",
      "constant": true
    },
    {
      "inputs": [
        {
          "internalType": "address",
          "name": "_from",
          "type": "address"
        },
        {
          "internalType": "address",
          "name": "_to",
          "type": "address"
        },
        {
          "internalType": "uint256",
          "name": "_value",
          "type": "uint256"
        }
      ],
      "name": "transferFrom",
      "outputs": [
        {
          "internalType": "bool",
          "name": "",
          "type": "bool"
        }
      ],
      "stateMutability": "nonpayable",
      "type": "function"
    },
    {
      "inputs": [
        {
          "internalType": "address",
          "name": "_spender",
          "type": "address"
        },
        {
          "internalType": "uint256",
          "name": "_value",
          "type": "uint256"
        }
      ],
      "name": "approve",
      "outputs": [
        {
          "internalType": "bool",
          "name": "",
          "type": "bool"
        }
      ],
      "stateMutability": "nonpayable",
      "type": "function"
    },
    {
      "inputs": [
        {
          "internalType": "address",
          "name": "_owner",
          "type": "address"
        },
        {
          "internalType": "address",
          "name": "_spender",
          "type": "address"
        }
      ],
      "name": "allowance",
      "outputs": [
        {
          "internalType": "uint256",
          "name": "",
          "type": "uint256"
        }
      ],
      "stateMutability": "view",
      "type": "function",
      "constant": true
    },
    {
      "inputs": [
        {
          "internalType": "address",
          "name": "_proposedOwner",
          "type": "address"
        }
      ],
      "name": "proposeOwner",
      "outputs": [],
      "stateMutability": "nonpayable",
      "type": "function"
    },
    {
      "inputs": [],
      "name": "disregardProposeOwner",
      "outputs": [],
      "stateMutability": "nonpayable",
      "type": "function"
    },
    {
      "inputs": [],
      "name": "claimOwnership",
      "outputs": [],
      "stateMutability": "nonpayable",
      "type": "function"
    },
    {
      "inputs": [],
      "name": "reclaimBUSD",
      "outputs": [],
      "stateMutability": "nonpayable",
      "type": "function"
    },
    {
      "inputs": [],
      "name": "pause",
      "outputs": [],
      "stateMutability": "nonpayable",
      "type": "function"
    },
    {
      "inputs": [],
      "name": "unpause",
      "outputs": [],
      "stateMutability": "nonpayable",
      "type": "function"
    },
    {
      "inputs": [
        {
          "internalType": "address",
          "name": "_newAssetProtectionRole",
          "type": "address"
        }
      ],
      "name": "setAssetProtectionRole",
      "outputs": [],
      "stateMutability": "nonpayable",
      "type": "function"
    },
    {
      "inputs": [
        {
          "internalType": "address",
          "name": "_addr",
          "type": "address"
        }
      ],
      "name": "freeze",
      "outputs": [],
      "stateMutability": "nonpayable",
      "type": "function"
    },
    {
      "inputs": [
        {
          "internalType": "address",
          "name": "_addr",
          "type": "address"
        }
      ],
      "name": "unfreeze",
      "outputs": [],
      "stateMutability": "nonpayable",
      "type": "function"
    },
    {
      "inputs": [
        {
          "internalType": "address",
          "name": "_addr",
          "type": "address"
        }
      ],
      "name": "wipeFrozenAddress",
      "outputs": [],
      "stateMutability": "nonpayable",
      "type": "function"
    },
    {
      "inputs": [
        {
          "internalType": "address",
          "name": "_addr",
          "type": "address"
        }
      ],
      "name": "isFrozen",
      "outputs": [
        {
          "internalType": "bool",
          "name": "",
          "type": "bool"
        }
      ],
      "stateMutability": "view",
      "type": "function",
      "constant": true
    },
    {
      "inputs": [
        {
          "internalType": "address",
          "name": "_newSupplyController",
          "type": "address"
        }
      ],
      "name": "setSupplyController",
      "outputs": [],
      "stateMutability": "nonpayable",
      "type": "function"
    },
    {
      "inputs": [
        {
          "internalType": "uint256",
          "name": "_value",
          "type": "uint256"
        }
      ],
      "name": "increaseSupply",
      "outputs": [
        {
          "internalType": "bool",
          "name": "success",
          "type": "bool"
        }
      ],
      "stateMutability": "nonpayable",
      "type": "function"
    },
    {
      "inputs": [
        {
          "internalType": "uint256",
          "name": "_value",
          "type": "uint256"
        }
      ],
      "name": "decreaseSupply",
      "outputs": [
        {
          "internalType": "bool",
          "name": "success",
          "type": "bool"
        }
      ],
      "stateMutability": "nonpayable",
      "type": "function"
    },
    {
      "inputs": [
        {
          "internalType": "address",
          "name": "target",
          "type": "address"
        }
      ],
      "name": "nextSeqOf",
      "outputs": [
        {
          "internalType": "uint256",
          "name": "",
          "type": "uint256"
        }
      ],
      "stateMutability": "view",
      "type": "function",
      "constant": true
    },
    {
      "inputs": [
        {
          "internalType": "bytes",
          "name": "sig",
          "type": "bytes"
        },
        {
          "internalType": "address",
          "name": "to",
          "type": "address"
        },
        {
          "internalType": "uint256",
          "name": "value",
          "type": "uint256"
        },
        {
          "internalType": "uint256",
          "name": "fee",
          "type": "uint256"
        },
        {
          "internalType": "uint256",
          "name": "seq",
          "type": "uint256"
        },
        {
          "internalType": "uint256",
          "name": "deadline",
          "type": "uint256"
        }
      ],
      "name": "betaDelegatedTransfer",
      "outputs": [
        {
          "internalType": "bool",
          "name": "",
          "type": "bool"
        }
      ],
      "stateMutability": "nonpayable",
      "type": "function"
    },
    {
      "inputs": [
        {
          "internalType": "bytes32[]",
          "name": "r",
          "type": "bytes32[]"
        },
        {
          "internalType": "bytes32[]",
          "name": "s",
          "type": "bytes32[]"
        },
        {
          "internalType": "uint8[]",
          "name": "v",
          "type": "uint8[]"
        },
        {
          "internalType": "address[]",
          "name": "to",
          "type": "address[]"
        },
        {
          "internalType": "uint256[]",
          "name": "value",
          "type": "uint256[]"
        },
        {
          "internalType": "uint256[]",
          "name": "fee",
          "type": "uint256[]"
        },
        {
          "internalType": "uint256[]",
          "name": "seq",
          "type": "uint256[]"
        },
        {
          "internalType": "uint256[]",
          "name": "deadline",
          "type": "uint256[]"
        }
      ],
      "name": "betaDelegatedTransferBatch",
      "outputs": [
        {
          "internalType": "bool",
          "name": "",
          "type": "bool"
        }
      ],
      "stateMutability": "nonpayable",
      "type": "function"
    },
    {
      "inputs": [
        {
          "internalType": "address",
          "name": "_addr",
          "type": "address"
        }
      ],
      "name": "isWhitelistedBetaDelegate",
      "outputs": [
        {
          "internalType": "bool",
          "name": "",
          "type": "bool"
        }
      ],
      "stateMutability": "view",
      "type": "function",
      "constant": true
    },
    {
      "inputs": [
        {
          "internalType": "address",
          "name": "_newWhitelister",
          "type": "address"
        }
      ],
      "name": "setBetaDelegateWhitelister",
      "outputs": [],
      "stateMutability": "nonpayable",
      "type": "function"
    },
    {
      "inputs": [
        {
          "internalType": "address",
          "name": "_addr",
          "type": "address"
        }
      ],
      "name": "whitelistBetaDelegate",
      "outputs": [],
      "stateMutability": "nonpayable",
      "type": "function"
    },
    {
      "inputs": [
        {
          "internalType": "address",
          "name": "_addr",
          "type": "address"
        }
      ],
      "name": "unwhitelistBetaDelegate",
      "outputs": [],
      "stateMutability": "nonpayable",
      "type": "function"
    }
  ],
  "bytecode": "0x60806040526000805460ff191690556005805460ff60a01b191690553480156200002857600080fd5b50620000336200004d565b6200003d620000ec565b62000047620001bf565b6200026f565b60005460ff1615620000a65760405162461bcd60e51b815260206004820152601360248201527f616c726561647920696e697469616c697a65640000000000000000000000000060448201526064015b60405180910390fd5b60048054336001600160a01b031991821681179092556005805482169055600680548216905560006002819055600880549092169092179055805460ff19166001179055565b6004546001600160a01b03163314620001345760405162461bcd60e51b815260206004820152600960248201526837b7363ca7bbb732b960b91b60448201526064016200009d565b600554600160a01b900460ff1615620001815760405162461bcd60e51b815260206004820152600e60248201526d185b1c9958591e481c185d5cd95960921b60448201526064016200009d565b6005805460ff60a01b1916600160a01b1790556040517f6985a02210a168e66602d3235cb6db0e70f92b3ba4d376a33c0f3d9434bff62590600090a1565b604080518082018252600b81526a109a5b985b98d9481554d160aa1b602091820152905162000252917fee552a4f357a6d8ecee15fed74927d873616e6da31fd672327acf0916acc174a917f6add503b112b8a5d1fd5c985ab52e0d40353dbf7791264d7ed89f5a6167a64f991309101928352602083019190915260601b6001600160601b031916604082015260540190565b60408051601f198184030181529190528051602090910120600c55565b612cc8806200027f6000396000f3fe608060405234801561001057600080fd5b506004361061023d5760003560e01c80638ceed9cb1161013b578063b921e163116100b8578063e2f72f031161007c578063e2f72f031461055f578063e306f77914610572578063e58398361461057b578063e7ba1012146105a7578063ebc93aaf146105ba57600080fd5b8063b921e163146104da578063c4f62fee146104ed578063d153b60c14610500578063d990c61814610513578063dd62ed3e1461052657600080fd5b806398e52f9a116100ff57806398e52f9a14610462578063a7d87ed014610475578063a9059cbb146104a1578063ac69275c146104b4578063b5ed298a146104c757600080fd5b80638ceed9cb146103f35780638d1fdf2f146104065780638da5cb5b1461041957806395d89b411461042c57806397d60d561461044f57600080fd5b8063313ce567116101c95780635c975abb1161018d5780635c975abb1461037d57806370a08231146103915780638129fc1c146103ba5780638456cb59146103c257806389f72c21146103ca57600080fd5b8063313ce5671461032d5780633f4ba83a1461034757806345c8b1a61461034f5780634e71e0c81461036257806352875bc31461036a57600080fd5b806318160ddd1161021057806318160ddd146102da5780631b670561146102ec57806321ab11f7146102ff57806323b872dd146103125780632ff791611461032557600080fd5b806303acb4481461024257806306fdde031461024c578063095ea7b31461028c5780630a91b601146102af575b600080fd5b61024a6105c2565b005b6102766040518060400160405280600b81526020016a109a5b985b98d9481554d160aa1b81525081565b6040516102839190612a9b565b60405180910390f35b61029f61029a366004612838565b610700565b6040519015158152602001610283565b6006546102c2906001600160a01b031681565b6040516001600160a01b039091168152602001610283565b6002545b604051908152602001610283565b61029f6102fa366004612861565b6107e7565b61029f61030d366004612998565b610a64565b61029f6103203660046127fd565b610b17565b61024a610dc3565b610335601281565b60405160ff9091168152602001610283565b61024a610e77565b61024a61035d3660046127b1565b610f25565b61024a611000565b61024a6103783660046127b1565b6110ab565b60055461029f90600160a01b900460ff1681565b6102de61039f3660046127b1565b6001600160a01b031660009081526001602052604090205490565b61024a6111e1565b61024a611270565b6102de6103d83660046127b1565b6001600160a01b03166000908152600b602052604090205490565b61024a6104013660046127b1565b611323565b61024a6104143660046127b1565b6113f8565b6004546102c2906001600160a01b031681565b61027660405180604001604052806004815260200163109554d160e21b81525081565b61024a61045d3660046127b1565b6114d0565b61029f610470366004612a5c565b61158b565b61029f6104833660046127b1565b6001600160a01b03166000908152600a602052604090205460ff1690565b61029f6104af366004612838565b61170a565b61024a6104c23660046127b1565b6118bb565b61024a6104d53660046127b1565b6119ca565b61029f6104e8366004612a5c565b611b07565b6009546102c2906001600160a01b031681565b6005546102c2906001600160a01b031681565b61024a6105213660046127b1565b611c1a565b6102de6105343660046127cb565b6001600160a01b03918216600090815260036020908152604080832093909416825291909152205490565b61024a61056d3660046127b1565b611d25565b6102de600c5481565b61029f6105893660046127b1565b6001600160a01b031660009081526007602052604090205460ff1690565b6008546102c2906001600160a01b031681565b61024a611e86565b6005546001600160a01b03163314806105e557506004546001600160a01b031633145b6106365760405162461bcd60e51b815260206004820152601b60248201527f6f6e6c792070726f706f7365644f776e6572206f72206f776e6572000000000060448201526064015b60405180910390fd5b6005546001600160a01b03166106b45760405162461bcd60e51b815260206004820152603b60248201527f63616e206f6e6c792064697372656761726420612070726f706f736564206f7760448201527f6e65722074686174207761732070726576696f75736c79207365740000000000606482015260840161062d565b600580546001600160a01b031981169091556040516001600160a01b039091169081907f24f4590b0077912a4db89e7430de7986175c27bede1b47ee039e3b421c2e798e90600090a250565b600554600090600160a01b900460ff161561072d5760405162461bcd60e51b815260040161062d90612b50565b6001600160a01b03831660009081526007602052604090205460ff1615801561076657503360009081526007602052604090205460ff16155b6107825760405162461bcd60e51b815260040161062d90612ace565b3360008181526003602090815260408083206001600160a01b03881680855290835292819020869055518581529192917f8c5be1e5ebec7d5bd14f71427d1e84f3dd0314c0f7b2291e5b200ac8c7c3b92591015b60405180910390a350600192915050565b6000875189511480156107fb575086518951145b8015610808575085518951145b8015610815575084518951145b6108535760405162461bcd60e51b815260206004820152600f60248201526e0d8cadccee8d040dad2e6dac2e8c6d608b1b604482015260640161062d565b83518951148015610865575082518951145b8015610872575081518951145b6108b05760405162461bcd60e51b815260206004820152600f60248201526e0d8cadccee8d040dad2e6dac2e8c6d608b1b604482015260640161062d565b60005b8951811015610a5457610a048a82815181106108df57634e487b7160e01b600052603260045260246000fd5b60200260200101518a838151811061090757634e487b7160e01b600052603260045260246000fd5b60200260200101518a848151811061092f57634e487b7160e01b600052603260045260246000fd5b60200260200101518a858151811061095757634e487b7160e01b600052603260045260246000fd5b60200260200101518a868151811061097f57634e487b7160e01b600052603260045260246000fd5b60200260200101518a87815181106109a757634e487b7160e01b600052603260045260246000fd5b60200260200101518a88815181106109cf57634e487b7160e01b600052603260045260246000fd5b60200260200101518a89815181106109f757634e487b7160e01b600052603260045260246000fd5b6020026020010151611f2e565b610a425760405162461bcd60e51b815260206004820152600f60248201526e3330b4b632b2103a3930b739b332b960891b604482015260640161062d565b80610a4c81612c2b565b9150506108b3565b5060019998505050505050505050565b60008651604114610ab75760405162461bcd60e51b815260206004820152601f60248201527f7369676e61747572652073686f756c642068617665206c656e67746820363500604482015260640161062d565b60208701516040880151606089015160001a610ad98383838c8c8c8c8c611f2e565b610a545760405162461bcd60e51b815260206004820152600f60248201526e3330b4b632b2103a3930b739b332b960891b604482015260640161062d565b600554600090600160a01b900460ff1615610b445760405162461bcd60e51b815260040161062d90612b50565b6001600160a01b038316610b9a5760405162461bcd60e51b815260206004820152601f60248201527f63616e6e6f74207472616e7366657220746f2061646472657373207a65726f00604482015260640161062d565b6001600160a01b03831660009081526007602052604090205460ff16158015610bdc57506001600160a01b03841660009081526007602052604090205460ff16155b8015610bf857503360009081526007602052604090205460ff16155b610c145760405162461bcd60e51b815260040161062d90612ace565b6001600160a01b038416600090815260016020526040902054821115610c715760405162461bcd60e51b8152602060048201526012602482015271696e73756666696369656e742066756e647360701b604482015260640161062d565b6001600160a01b0384166000908152600360209081526040808320338452909152902054821115610cdd5760405162461bcd60e51b8152602060048201526016602482015275696e73756666696369656e7420616c6c6f77616e636560501b604482015260640161062d565b6001600160a01b038416600090815260016020526040902054610d009083612616565b6001600160a01b038086166000908152600160205260408082209390935590851681522054610d2f9083612639565b6001600160a01b038085166000908152600160209081526040808320949094559187168152600382528281203382529091522054610d6d9083612616565b6001600160a01b0385811660008181526003602090815260408083203384528252918290209490945551858152918616929091600080516020612c73833981519152910160405180910390a35060019392505050565b604080518082018252600b81526a109a5b985b98d9481554d160aa1b6020918201529051610e5a917fee552a4f357a6d8ecee15fed74927d873616e6da31fd672327acf0916acc174a917f6add503b112b8a5d1fd5c985ab52e0d40353dbf7791264d7ed89f5a6167a64f991309101928352602083019190915260601b6bffffffffffffffffffffffff1916604082015260540190565b60408051601f198184030181529190528051602090910120600c55565b6004546001600160a01b03163314610ea15760405162461bcd60e51b815260040161062d90612b2d565b600554600160a01b900460ff16610eed5760405162461bcd60e51b815260206004820152601060248201526f185b1c9958591e481d5b9c185d5cd95960821b604482015260640161062d565b6005805460ff60a01b191690556040517f7805862f689e2f13df9f062ff482ad3ad112aca9e0847911ed832e158c525b3390600090a1565b6006546001600160a01b03163314610f4f5760405162461bcd60e51b815260040161062d90612af6565b6001600160a01b03811660009081526007602052604090205460ff16610fb75760405162461bcd60e51b815260206004820152601860248201527f6164647265737320616c726561647920756e66726f7a656e0000000000000000604482015260640161062d565b6001600160a01b038116600081815260076020526040808220805460ff19169055517fc3776b472ebf54114339eec9e4dc924e7ce307a97f5c1ee72b6d474e6e5e8b7c9190a250565b6005546001600160a01b0316331461104e5760405162461bcd60e51b815260206004820152601160248201527037b7363ca83937b837b9b2b227bbb732b960791b604482015260640161062d565b60048054600580546001600160a01b03198084166001600160a01b038381169182179096559116909155604051929091169182907f8be0079c531659141344cd1fd0a4f28419497f9722a3daafe3b4186f6b6457e090600090a350565b6008546001600160a01b03163314806110ce57506004546001600160a01b031633145b61111a5760405162461bcd60e51b815260206004820152601e60248201527f6f6e6c7920537570706c79436f6e74726f6c6c6572206f72204f776e65720000604482015260640161062d565b6001600160a01b0381166111855760405162461bcd60e51b815260206004820152602c60248201527f63616e6e6f742073657420737570706c7920636f6e74726f6c6c657220746f2060448201526b61646472657373207a65726f60a01b606482015260840161062d565b6008546040516001600160a01b038084169216907f40d53b0b666e4424f29d55244e7e171a1dc332acc11d04ed4abd884629d8cc9790600090a3600880546001600160a01b0319166001600160a01b0392909216919091179055565b60005460ff161561122a5760405162461bcd60e51b8152602060048201526013602482015272185b1c9958591e481a5b9a5d1a585b1a5e9959606a1b604482015260640161062d565b60048054336001600160a01b031991821681179092556005805482169055600680548216905560006002819055600880549092169092179055805460ff19166001179055565b6004546001600160a01b0316331461129a5760405162461bcd60e51b815260040161062d90612b2d565b600554600160a01b900460ff16156112e55760405162461bcd60e51b815260206004820152600e60248201526d185b1c9958591e481c185d5cd95960921b604482015260640161062d565b6005805460ff60a01b1916600160a01b1790556040517f6985a02210a168e66602d3235cb6db0e70f92b3ba4d376a33c0f3d9434bff62590600090a1565b6006546001600160a01b031633148061134657506004546001600160a01b031633145b61139c5760405162461bcd60e51b815260206004820152602160248201527f6f6e6c7920617373657450726f74656374696f6e526f6c65206f72204f776e656044820152603960f91b606482015260840161062d565b6006546040516001600160a01b038084169216907fd0c36a0ac0fe0d375386bd568fa2947a2dae7523a0a0cfdab20b7532a105bd1b90600090a3600680546001600160a01b0319166001600160a01b0392909216919091179055565b6006546001600160a01b031633146114225760405162461bcd60e51b815260040161062d90612af6565b6001600160a01b03811660009081526007602052604090205460ff16156114845760405162461bcd60e51b815260206004820152601660248201527530b2323932b9b99030b63932b0b23c90333937bd32b760511b604482015260640161062d565b6001600160a01b038116600081815260076020526040808220805460ff19166001179055517f90811a8edd3b3c17eeaefffc17f639cc69145d41a359c9843994dc25382036909190a250565b6009546001600160a01b03163314806114f357506004546001600160a01b031633145b61153f5760405162461bcd60e51b815260206004820152601960248201527f6f6e6c792057686974656c6973746572206f72204f776e657200000000000000604482015260640161062d565b600980546001600160a01b0319166001600160a01b03831690811790915560405181907f54e20b07412504aee4d17519747ae2f01b9924f7f30059793fe5576c4220a0c390600090a350565b6008546000906001600160a01b031633146115df5760405162461bcd60e51b815260206004820152601460248201527337b7363ca9bab838363ca1b7b73a3937b63632b960611b604482015260640161062d565b6008546001600160a01b031660009081526001602052604090205482111561163d5760405162461bcd60e51b81526020600482015260116024820152706e6f7420656e6f75676820737570706c7960781b604482015260640161062d565b6008546001600160a01b03166000908152600160205260409020546116629083612616565b6008546001600160a01b031660009081526001602052604090205560025461168a9083612616565b6002556008546040518381526001600160a01b03909116907f1b7e18241beced0d7f41fbab1ea8ed468732edbcb74ec4420151654ca71c8a639060200160405180910390a26008546040518381526000916001600160a01b031690600080516020612c73833981519152906020015b60405180910390a35060015b919050565b600554600090600160a01b900460ff16156117375760405162461bcd60e51b815260040161062d90612b50565b6001600160a01b03831661178d5760405162461bcd60e51b815260206004820152601f60248201527f63616e6e6f74207472616e7366657220746f2061646472657373207a65726f00604482015260640161062d565b6001600160a01b03831660009081526007602052604090205460ff161580156117c657503360009081526007602052604090205460ff16155b6117e25760405162461bcd60e51b815260040161062d90612ace565b336000908152600160205260409020548211156118365760405162461bcd60e51b8152602060048201526012602482015271696e73756666696369656e742066756e647360701b604482015260640161062d565b336000908152600160205260409020546118509083612616565b33600090815260016020526040808220929092556001600160a01b0385168152205461187c9083612639565b6001600160a01b038416600081815260016020526040908190209290925590513390600080516020612c73833981519152906107d69086815260200190565b6009546001600160a01b031633146119155760405162461bcd60e51b815260206004820152601b60248201527f6f6e6c794265746144656c656761746557686974656c69737465720000000000604482015260640161062d565b6001600160a01b0381166000908152600a602052604090205460ff161561197e5760405162461bcd60e51b815260206004820152601c60248201527f64656c656761746520616c72656164792077686974656c697374656400000000604482015260640161062d565b6001600160a01b0381166000818152600a6020526040808220805460ff19166001179055517f8a22e0d8ecb02260464e9a55b7d82b17482735ae1f765de59dee573dfec5b36d9190a250565b6004546001600160a01b031633146119f45760405162461bcd60e51b815260040161062d90612b2d565b6001600160a01b038116611a5c5760405162461bcd60e51b815260206004820152602960248201527f63616e6e6f74207472616e73666572206f776e65727368697020746f2061646460448201526872657373207a65726f60b81b606482015260840161062d565b336001600160a01b0382161415611ab55760405162461bcd60e51b815260206004820152601760248201527f63616c6c657220616c7265616479206973206f776e6572000000000000000000604482015260640161062d565b600580546001600160a01b0319166001600160a01b03838116918217909255600454604051919216907ff4e75b79500ab730f8a026ed3cba6d55331bcb64c9e9f60c548e371356e5e3c090600090a350565b6008546000906001600160a01b03163314611b5b5760405162461bcd60e51b815260206004820152601460248201527337b7363ca9bab838363ca1b7b73a3937b63632b960611b604482015260640161062d565b600254611b689083612639565b6002556008546001600160a01b0316600090815260016020526040902054611b909083612639565b600880546001600160a01b0390811660009081526001602090815260409182902094909455915491518581529116917ff5c174d57843e57fea3c649fdde37f015ef08750759cbee88060390566a98797910160405180910390a26008546040518381526001600160a01b0390911690600090600080516020612c73833981519152906020016116f9565b6009546001600160a01b03163314611c745760405162461bcd60e51b815260206004820152601b60248201527f6f6e6c794265746144656c656761746557686974656c69737465720000000000604482015260640161062d565b6001600160a01b0381166000908152600a602052604090205460ff16611cdc5760405162461bcd60e51b815260206004820152601860248201527f64656c6567617465206e6f742077686974656c69737465640000000000000000604482015260640161062d565b6001600160a01b0381166000818152600a6020526040808220805460ff19169055517f12acb305bec2ecc1e4568decc9c8e0423749ceb6ae249eaef4ef375ec174a49c9190a250565b6006546001600160a01b03163314611d4f5760405162461bcd60e51b815260040161062d90612af6565b6001600160a01b03811660009081526007602052604090205460ff16611daf5760405162461bcd60e51b815260206004820152601560248201527430b2323932b9b99034b9903737ba10333937bd32b760591b604482015260640161062d565b6001600160a01b03811660009081526001602052604081208054919055600254611dd99082612616565b6002556040516001600160a01b038316907ffc5960f1c5a5d2b60f031bf534af053b1bf7d9881989afaeb8b1d164db23aede90600090a2816001600160a01b03167f1b7e18241beced0d7f41fbab1ea8ed468732edbcb74ec4420151654ca71c8a6382604051611e4b91815260200190565b60405180910390a26040518181526000906001600160a01b03841690600080516020612c738339815191529060200160405180910390a35050565b6004546001600160a01b03163314611eb05760405162461bcd60e51b815260040161062d90612b2d565b306000908152600160205260408082208054908390556004546001600160a01b03168352912054611ee19082612639565b600480546001600160a01b0390811660009081526001602090815260409182902094909455915491518481529116913091600080516020612c73833981519152910160405180910390a350565b600554600090600160a01b900460ff1615611f5b5760405162461bcd60e51b815260040161062d90612b50565b336000908152600a602052604090205460ff16611fd25760405162461bcd60e51b815260206004820152602f60248201527f426574612066656174757265206f6e6c7920616363657074732077686974656c60448201526e69737465642064656c65676174657360881b606482015260840161062d565b6000851180611fe15750600084115b61203f5760405162461bcd60e51b815260206004820152602960248201527f63616e6e6f74207472616e73666572207a65726f20746f6b656e732077697468604482015268207a65726f2066656560b81b606482015260840161062d565b814311156120855760405162461bcd60e51b81526020600482015260136024820152721d1c985b9cd858dd1a5bdb88195e1c1a5c9959606a1b604482015260640161062d565b7f7fffffffffffffffffffffffffffffff5d576e7357a4501ddfe92f46681b20a08811156120eb5760405162461bcd60e51b81526020600482015260136024820152721cda59db985d1d5c99481a5b98dbdc9c9958dd606a1b604482015260640161062d565b8660ff16601b148061210057508660ff16601c145b6121425760405162461bcd60e51b81526020600482015260136024820152721cda59db985d1d5c99481a5b98dbdc9c9958dd606a1b604482015260640161062d565b604080517f4094ee93b87436e01a39cd5f9d33833f8e427f8830eacb6832f06f8536b54c0c60208201526bffffffffffffffffffffffff19606089901b169181019190915260548101869052607481018590526094810184905260b4810183905260009060d401604051602081830303815290604052805190602001209050600060405180604001604052806002815260200161190160f01b815250600c54836040516020016121f493929190612a74565b60408051601f198184030181528282528051602091820120600080855291840180845281905260ff8d1692840192909252606083018e9052608083018d90529092509060019060a0016020604051602081039080840390855afa15801561225f573d6000803e3d6000fd5b5050604051601f1901519150506001600160a01b0381166122d85760405162461bcd60e51b815260206004820152602d60248201527f6572726f722064657465726d696e696e672066726f6d2061646472657373206660448201526c726f6d207369676e617475726560981b606482015260840161062d565b6001600160a01b0389166123275760405162461bcd60e51b815260206004820152601660248201527563616e6e6f207573652061646472657373207a65726f60501b604482015260640161062d565b6001600160a01b03891660009081526007602052604090205460ff1615801561236957506001600160a01b03811660009081526007602052604090205460ff16155b801561238557503360009081526007602052604090205460ff16155b6123a15760405162461bcd60e51b815260040161062d90612ace565b6001600160a01b0381166000908152600160205260409020546123c48989612639565b11156124055760405162461bcd60e51b815260206004820152601060248201526f1a5b9cdd59999a58d95b9d08199d5b9960821b604482015260640161062d565b6001600160a01b0381166000908152600b6020526040902054861461245c5760405162461bcd60e51b815260206004820152600d60248201526c696e636f72726563742073657160981b604482015260640161062d565b6001600160a01b0381166000908152600b6020526040902054612480906001612639565b6001600160a01b0382166000908152600b60205260409020556124c56124a68989612639565b6001600160a01b03831660009081526001602052604090205490612616565b6001600160a01b038216600090815260016020526040902055861561254657336000908152600160205260409020546124fe9088612639565b33600081815260016020526040908190209290925590516001600160a01b03831690600080516020612c738339815191529061253d908b815260200190565b60405180910390a35b6001600160a01b0389166000908152600160205260409020546125699089612639565b6001600160a01b03808b166000818152600160205260409081902093909355915190831690600080516020612c73833981519152906125ab908c815260200190565b60405180910390a360408051898152602081018890529081018890526001600160a01b03808b1691908316907fe526c2818be85606ab8e0ea3f317c198ef15baabbb4430bcf2d836eed3c7769b9060600160405180910390a35060019b9a5050505050505050505050565b60008282111561262557600080fd5b60006126318385612be4565b949350505050565b6000806126468385612bcc565b90508381101561265557600080fd5b9392505050565b80356001600160a01b038116811461170557600080fd5b600082601f830112612683578081fd5b8135602061269861269383612ba8565b612b77565b80838252828201915082860187848660051b89010111156126b7578586fd5b855b858110156126dc576126ca8261265c565b845292840192908401906001016126b9565b5090979650505050505050565b600082601f8301126126f9578081fd5b8135602061270961269383612ba8565b80838252828201915082860187848660051b8901011115612728578586fd5b855b858110156126dc5781358452928401929084019060010161272a565b600082601f830112612756578081fd5b8135602061276661269383612ba8565b80838252828201915082860187848660051b8901011115612785578586fd5b855b858110156126dc57813560ff8116811461279f578788fd5b84529284019290840190600101612787565b6000602082840312156127c2578081fd5b6126558261265c565b600080604083850312156127dd578081fd5b6127e68361265c565b91506127f46020840161265c565b90509250929050565b600080600060608486031215612811578081fd5b61281a8461265c565b92506128286020850161265c565b9150604084013590509250925092565b6000806040838503121561284a578182fd5b6128538361265c565b946020939093013593505050565b600080600080600080600080610100898b03121561287d578384fd5b883567ffffffffffffffff80821115612894578586fd5b6128a08c838d016126e9565b995060208b01359150808211156128b5578586fd5b6128c18c838d016126e9565b985060408b01359150808211156128d6578586fd5b6128e28c838d01612746565b975060608b01359150808211156128f7578586fd5b6129038c838d01612673565b965060808b0135915080821115612918578586fd5b6129248c838d016126e9565b955060a08b0135915080821115612939578485fd5b6129458c838d016126e9565b945060c08b013591508082111561295a578384fd5b6129668c838d016126e9565b935060e08b013591508082111561297b578283fd5b506129888b828c016126e9565b9150509295985092959890939650565b60008060008060008060c087890312156129b0578182fd5b863567ffffffffffffffff808211156129c7578384fd5b818901915089601f8301126129da578384fd5b81356020828211156129ee576129ee612c5c565b612a00601f8301601f19168201612b77565b92508183528b81838601011115612a15578586fd5b818185018285013785818385010152829950612a32818c0161265c565b999c999b505050506040880135976060810135976080820135975060a09091013595509350505050565b600060208284031215612a6d578081fd5b5035919050565b60008451612a86818460208901612bfb565b91909101928352506020820152604001919050565b6020815260008251806020840152612aba816040850160208701612bfb565b601f01601f19169190910160400192915050565b6020808252600e908201526d30b2323932b9b990333937bd32b760911b604082015260600190565b60208082526017908201527f6f6e6c79417373657450726f74656374696f6e526f6c65000000000000000000604082015260600190565b60208082526009908201526837b7363ca7bbb732b960b91b604082015260600190565b6020808252600d908201526c1dda195b939bdd14185d5cd959609a1b604082015260600190565b604051601f8201601f1916810167ffffffffffffffff81118282101715612ba057612ba0612c5c565b604052919050565b600067ffffffffffffffff821115612bc257612bc2612c5c565b5060051b60200190565b60008219821115612bdf57612bdf612c46565b500190565b600082821015612bf657612bf6612c46565b500390565b60005b83811015612c16578181015183820152602001612bfe565b83811115612c25576000848401525b50505050565b6000600019821415612c3f57612c3f612c46565b5060010190565b634e487b7160e01b600052601160045260246000fd5b634e487b7160e01b600052604160045260246000fdfeddf252ad1be2c89b69c2b068fc378daa952ba7f163c4a11628f55a4df523b3efa264697066735822122016ad9e6174f7cd4aa59acd11d0aa43512074de38ea1f7ca03557ac48efc24e7064736f6c63430008040033",
  "immutableReferences": {},
  "source": "\n// SPDX-License-Identifier: MIT\n\npragma solidity >=0.5.0 <0.9.0;\n\n\n/**\n * @title SafeMath\n * @dev Math operations with safety checks that throw on error\n */\nlibrary SafeMath {\n    /**\n    * @dev Subtracts two numbers, reverts on overflow (i.e. if subtrahend is greater than minuend).\n    */\n    function sub(uint256 a, uint256 b) internal pure returns (uint256) {\n        require(b <= a);\n        uint256 c = a - b;\n\n        return c;\n    }\n\n    /**\n    * @dev Adds two numbers, reverts on overflow.\n    */\n    function add(uint256 a, uint256 b) internal pure returns (uint256) {\n        uint256 c = a + b;\n        require(c >= a);\n\n        return c;\n    }\n}\n\n// pragma experimental ABIEncoderV2;\n\n/**\n * @title BUSDToken\n * @dev this contract is a Pausable ERC20 token with Burn and Mint\n * controlled by a central SupplyController. By implementing BUSDToken\n * this contract also includes external methods for setting\n * a new implementation contract for the Proxy.\n * NOTE: The storage defined here will actually be held in the Proxy\n * contract and all calls to this contract should be made through\n * the proxy, including admin actions done as owner or supplyController.\n * Any call to transfer against this contract should fail\n * with insufficient funds since no tokens will be issued there.\n */\ncontract BUSDToken {\n\n    /**\n     * MATH\n     */\n\n    using SafeMath for uint256;\n\n    /**\n     * DATA\n     */\n\n    // INITIALIZATION DATA\n    bool private initialized = false;\n\n    // ERC20 BASIC DATA\n    mapping(address => uint256) internal balances;\n    uint256 internal totalSupply_;\n    string public constant name = \"Binance USD\"; // solium-disable-line\n    string public constant symbol = \"BUSD\"; // solium-disable-line uppercase\n    uint8 public constant decimals = 18; // solium-disable-line uppercase\n\n    // ERC20 DATA\n    mapping(address => mapping(address => uint256)) internal allowed;\n\n    // OWNER DATA\n    address public owner;\n    address public proposedOwner;\n\n    // PAUSABILITY DATA\n    bool public paused = false;\n\n    // ASSET PROTECTION DATA\n    address public assetProtectionRole;\n    mapping(address => bool) internal frozen;\n\n    // SUPPLY CONTROL DATA\n    address public supplyController;\n\n    // DELEGATED TRANSFER DATA\n    address public betaDelegateWhitelister;\n    mapping(address => bool) internal betaDelegateWhitelist;\n    mapping(address => uint256) internal nextSeqs;\n    // EIP191 header for EIP712 prefix\n    string constant internal EIP191_HEADER = \"\\x19\\x01\";\n    // Hash of the EIP712 Domain Separator Schema\n    bytes32 constant internal EIP712_DOMAIN_SEPARATOR_SCHEMA_HASH = keccak256(\n        \"EIP712Domain(string name,address verifyingContract)\"\n    );\n    bytes32 constant internal EIP712_DELEGATED_TRANSFER_SCHEMA_HASH = keccak256(\n        \"BetaDelegatedTransfer(address to,uint256 value,uint256 fee,uint256 seq,uint256 deadline)\"\n    );\n    // Hash of the EIP712 Domain Separator data\n    // solhint-disable-next-line var-name-mixedcase\n    bytes32 public EIP712_DOMAIN_HASH;\n\n    /**\n     * EVENTS\n     */\n\n    // ERC20 BASIC EVENTS\n    event Transfer(address indexed from, address indexed to, uint256 value);\n\n    // ERC20 EVENTS\n    event Approval(\n        address indexed owner,\n        address indexed spender,\n        uint256 value\n    );\n\n    // OWNABLE EVENTS\n    event OwnershipTransferProposed(\n        address indexed currentOwner,\n        address indexed proposedOwner\n    );\n    event OwnershipTransferDisregarded(\n        address indexed oldProposedOwner\n    );\n    event OwnershipTransferred(\n        address indexed oldOwner,\n        address indexed newOwner\n    );\n\n    // PAUSABLE EVENTS\n    event Pause();\n    event Unpause();\n\n    // ASSET PROTECTION EVENTS\n    event AddressFrozen(address indexed addr);\n    event AddressUnfrozen(address indexed addr);\n    event FrozenAddressWiped(address indexed addr);\n    event AssetProtectionRoleSet (\n        address indexed oldAssetProtectionRole,\n        address indexed newAssetProtectionRole\n    );\n\n    // SUPPLY CONTROL EVENTS\n    event SupplyIncreased(address indexed to, uint256 value);\n    event SupplyDecreased(address indexed from, uint256 value);\n    event SupplyControllerSet(\n        address indexed oldSupplyController,\n        address indexed newSupplyController\n    );\n\n    // DELEGATED TRANSFER EVENTS\n    event BetaDelegatedTransfer(\n        address indexed from, address indexed to, uint256 value, uint256 seq, uint256 fee\n    );\n    event BetaDelegateWhitelisterSet(\n        address indexed oldWhitelister,\n        address indexed newWhitelister\n    );\n    event BetaDelegateWhitelisted(address indexed newDelegate);\n    event BetaDelegateUnwhitelisted(address indexed oldDelegate);\n\n    /**\n     * FUNCTIONALITY\n     */\n\n    // INITIALIZATION FUNCTIONALITY\n\n    /**\n     * @dev sets 0 initials tokens, the owner, and the supplyController.\n     * this serves as the constructor for the proxy but compiles to the\n     * memory model of the Implementation contract.\n     */\n    function initialize() public {\n        require(!initialized, \"already initialized\");\n        owner = msg.sender;\n        proposedOwner = address(0);\n        assetProtectionRole = address(0);\n        totalSupply_ = 0;\n        supplyController = msg.sender;\n        initialized = true;\n    }\n\n    /**\n     * The constructor is used here to ensure that the implementation\n     * contract is initialized. An uncontrolled implementation\n     * contract might lead to misleading state\n     * for users who accidentally interact with it.\n     */\n    constructor() {\n        initialize();\n        pause();\n        // Added in V2\n        initializeDomainSeparator();\n    }\n\n    /**\n     * @dev To be called when upgrading the contract using upgradeAndCall to add delegated transfers\n     */\n    function initializeDomainSeparator() public {\n        // hash the name context with the contract address\n        EIP712_DOMAIN_HASH = keccak256(abi.encodePacked(// solium-disable-line\n                EIP712_DOMAIN_SEPARATOR_SCHEMA_HASH,\n                keccak256(bytes(name)),\n                address(this)\n            ));\n    }\n\n    // ERC20 BASIC FUNCTIONALITY\n\n    /**\n    * @dev Total number of tokens in existence\n    */\n    function totalSupply() public view returns (uint256) {\n        return totalSupply_;\n    }\n\n    /**\n    * @dev Transfer token to a specified address from msg.sender\n    * Note: the use of Safemath ensures that _value is nonnegative.\n    * @param _to The address to transfer to.\n    * @param _value The amount to be transferred.\n    */\n    function transfer(address _to, uint256 _value) public whenNotPaused returns (bool) {\n        require(_to != address(0), \"cannot transfer to address zero\");\n        require(!frozen[_to] && !frozen[msg.sender], \"address frozen\");\n        require(_value <= balances[msg.sender], \"insufficient funds\");\n\n        balances[msg.sender] = balances[msg.sender].sub(_value);\n        balances[_to] = balances[_to].add(_value);\n        emit Transfer(msg.sender, _to, _value);\n        return true;\n    }\n\n    /**\n    * @dev Gets the balance of the specified address.\n    * @param _addr The address to query the the balance of.\n    * @return An uint256 representing the amount owned by the passed address.\n    */\n    function balanceOf(address _addr) public view returns (uint256) {\n        return balances[_addr];\n    }\n\n    // ERC20 FUNCTIONALITY\n\n    /**\n     * @dev Transfer tokens from one address to another\n     * @param _from address The address which you want to send tokens from\n     * @param _to address The address which you want to transfer to\n     * @param _value uint256 the amount of tokens to be transferred\n     */\n    function transferFrom(\n        address _from,\n        address _to,\n        uint256 _value\n    )\n    public\n    whenNotPaused\n    returns (bool)\n    {\n        require(_to != address(0), \"cannot transfer to address zero\");\n        require(!frozen[_to] && !frozen[_from] && !frozen[msg.sender], \"address frozen\");\n        require(_value <= balances[_from], \"insufficient funds\");\n        require(_value <= allowed[_from][msg.sender], \"insufficient allowance\");\n\n        balances[_from] = balances[_from].sub(_value);\n        balances[_to] = balances[_to].add(_value);\n        allowed[_from][msg.sender] = allowed[_from][msg.sender].sub(_value);\n        emit Transfer(_from, _to, _value);\n        return true;\n    }\n\n    /**\n     * @dev Approve the passed address to spend the specified amount of tokens on behalf of msg.sender.\n     * Beware that changing an allowance with this method brings the risk that someone may use both the old\n     * and the new allowance by unfortunate transaction ordering. One possible solution to mitigate this\n     * race condition is to first reduce the spender's allowance to 0 and set the desired value afterwards:\n     * https://github.com/ethereum/EIPs/issues/20#issuecomment-263524729\n     * @param _spender The address which will spend the funds.\n     * @param _value The amount of tokens to be spent.\n     */\n    function approve(address _spender, uint256 _value) public whenNotPaused returns (bool) {\n        require(!frozen[_spender] && !frozen[msg.sender], \"address frozen\");\n        allowed[msg.sender][_spender] = _value;\n        emit Approval(msg.sender, _spender, _value);\n        return true;\n    }\n\n    /**\n     * @dev Function to check the amount of tokens that an owner allowed to a spender.\n     * @param _owner address The address which owns the funds.\n     * @param _spender address The address which will spend the funds.\n     * @return A uint256 specifying the amount of tokens still available for the spender.\n     */\n    function allowance(\n        address _owner,\n        address _spender\n    )\n    public\n    view\n    returns (uint256)\n    {\n        return allowed[_owner][_spender];\n    }\n\n    // OWNER FUNCTIONALITY\n\n    /**\n     * @dev Throws if called by any account other than the owner.\n     */\n    modifier onlyOwner() {\n        require(msg.sender == owner, \"onlyOwner\");\n        _;\n    }\n\n    /**\n     * @dev Allows the current owner to begin transferring control of the contract to a proposedOwner\n     * @param _proposedOwner The address to transfer ownership to.\n     */\n    function proposeOwner(address _proposedOwner) public onlyOwner {\n        require(_proposedOwner != address(0), \"cannot transfer ownership to address zero\");\n        require(msg.sender != _proposedOwner, \"caller already is owner\");\n        proposedOwner = _proposedOwner;\n        emit OwnershipTransferProposed(owner, proposedOwner);\n    }\n\n    /**\n     * @dev Allows the current owner or proposed owner to cancel transferring control of the contract to a proposedOwner\n     */\n    function disregardProposeOwner() public {\n        require(msg.sender == proposedOwner || msg.sender == owner, \"only proposedOwner or owner\");\n        require(proposedOwner != address(0), \"can only disregard a proposed owner that was previously set\");\n        address _oldProposedOwner = proposedOwner;\n        proposedOwner = address(0);\n        emit OwnershipTransferDisregarded(_oldProposedOwner);\n    }\n\n    /**\n     * @dev Allows the proposed owner to complete transferring control of the contract to the proposedOwner.\n     */\n    function claimOwnership() public {\n        require(msg.sender == proposedOwner, \"onlyProposedOwner\");\n        address _oldOwner = owner;\n        owner = proposedOwner;\n        proposedOwner = address(0);\n        emit OwnershipTransferred(_oldOwner, owner);\n    }\n\n    /**\n     * @dev Reclaim all BUSD at the contract address.\n     * This sends the BUSD tokens that this contract add holding to the owner.\n     * Note: this is not affected by freeze constraints.\n     */\n    function reclaimBUSD() external onlyOwner {\n        uint256 _balance = balances[address(this)];\n        balances[address(this)] = 0;\n        balances[owner] = balances[owner].add(_balance);\n        emit Transfer(address(this), owner, _balance);\n    }\n\n    // PAUSABILITY FUNCTIONALITY\n\n    /**\n     * @dev Modifier to make a function callable only when the contract is not paused.\n     */\n    modifier whenNotPaused() {\n        require(!paused, \"whenNotPaused\");\n        _;\n    }\n\n    /**\n     * @dev called by the owner to pause, triggers stopped state\n     */\n    function pause() public onlyOwner {\n        require(!paused, \"already paused\");\n        paused = true;\n        emit Pause();\n    }\n\n    /**\n     * @dev called by the owner to unpause, returns to normal state\n     */\n    function unpause() public onlyOwner {\n        require(paused, \"already unpaused\");\n        paused = false;\n        emit Unpause();\n    }\n\n    // ASSET PROTECTION FUNCTIONALITY\n\n    /**\n     * @dev Sets a new asset Protection role address.\n     * @param _newAssetProtectionRole The new address allowed to freeze/unfreeze addresses and seize their tokens.\n     */\n    function setAssetProtectionRole(address _newAssetProtectionRole) public {\n        require(msg.sender == assetProtectionRole || msg.sender == owner, \"only assetProtectionRole or Owner\");\n        emit AssetProtectionRoleSet(assetProtectionRole, _newAssetProtectionRole);\n        assetProtectionRole = _newAssetProtectionRole;\n    }\n\n    modifier onlyAssetProtectionRole() {\n        require(msg.sender == assetProtectionRole, \"onlyAssetProtectionRole\");\n        _;\n    }\n\n    /**\n     * @dev Freezes an address balance from being transferred.\n     * @param _addr The new address to freeze.\n     */\n    function freeze(address _addr) public onlyAssetProtectionRole {\n        require(!frozen[_addr], \"address already frozen\");\n        frozen[_addr] = true;\n        emit AddressFrozen(_addr);\n    }\n\n    /**\n     * @dev Unfreezes an address balance allowing transfer.\n     * @param _addr The new address to unfreeze.\n     */\n    function unfreeze(address _addr) public onlyAssetProtectionRole {\n        require(frozen[_addr], \"address already unfrozen\");\n        frozen[_addr] = false;\n        emit AddressUnfrozen(_addr);\n    }\n\n    /**\n     * @dev Wipes the balance of a frozen address, burning the tokens\n     * and setting the approval to zero.\n     * @param _addr The new frozen address to wipe.\n     */\n    function wipeFrozenAddress(address _addr) public onlyAssetProtectionRole {\n        require(frozen[_addr], \"address is not frozen\");\n        uint256 _balance = balances[_addr];\n        balances[_addr] = 0;\n        totalSupply_ = totalSupply_.sub(_balance);\n        emit FrozenAddressWiped(_addr);\n        emit SupplyDecreased(_addr, _balance);\n        emit Transfer(_addr, address(0), _balance);\n    }\n\n    /**\n    * @dev Gets whether the address is currently frozen.\n    * @param _addr The address to check if frozen.\n    * @return A bool representing whether the given address is frozen.\n    */\n    function isFrozen(address _addr) public view returns (bool) {\n        return frozen[_addr];\n    }\n\n    // SUPPLY CONTROL FUNCTIONALITY\n\n    /**\n     * @dev Sets a new supply controller address.\n     * @param _newSupplyController The address allowed to burn/mint tokens to control supply.\n     */\n    function setSupplyController(address _newSupplyController) public {\n        require(msg.sender == supplyController || msg.sender == owner, \"only SupplyController or Owner\");\n        require(_newSupplyController != address(0), \"cannot set supply controller to address zero\");\n        emit SupplyControllerSet(supplyController, _newSupplyController);\n        supplyController = _newSupplyController;\n    }\n\n    modifier onlySupplyController() {\n        require(msg.sender == supplyController, \"onlySupplyController\");\n        _;\n    }\n\n    /*\n     * @dev Increases the total supply by minting the specified number of tokens to the supply controller account.\n     * @param _value The number of tokens to add.\n     * @return A boolean that indicates if the operation was successful.\n     */\n    function increaseSupply(uint256 _value) public onlySupplyController returns (bool success) {\n        totalSupply_ = totalSupply_.add(_value);\n        balances[supplyController] = balances[supplyController].add(_value);\n        emit SupplyIncreased(supplyController, _value);\n        emit Transfer(address(0), supplyController, _value);\n        return true;\n    }\n\n    /*\n     * @dev Decreases the total supply by burning the specified number of tokens from the supply controller account.\n     * @param _value The number of tokens to remove.\n     * @return A boolean that indicates if the operation was successful.\n     */\n    function decreaseSupply(uint256 _value) public onlySupplyController returns (bool success) {\n        require(_value <= balances[supplyController], \"not enough supply\");\n        balances[supplyController] = balances[supplyController].sub(_value);\n        totalSupply_ = totalSupply_.sub(_value);\n        emit SupplyDecreased(supplyController, _value);\n        emit Transfer(supplyController, address(0), _value);\n        return true;\n    }\n\n    // DELEGATED TRANSFER FUNCTIONALITY\n\n    /**\n     * @dev returns the next seq for a target address.\n     * The transactor must submit nextSeqOf(transactor) in the next transaction for it to be valid.\n     * Note: that the seq context is specific to this smart contract.\n     * @param target The target address.\n     * @return the seq.\n     */\n    //\n    function nextSeqOf(address target) public view returns (uint256) {\n        return nextSeqs[target];\n    }\n\n    /**\n     * @dev Performs a transfer on behalf of the from address, identified by its signature on the delegatedTransfer msg.\n     * Splits a signature byte array into r,s,v for convenience.\n     * @param sig the signature of the delgatedTransfer msg.\n     * @param to The address to transfer to.\n     * @param value The amount to be transferred.\n     * @param fee an optional ERC20 fee paid to the executor of betaDelegatedTransfer by the from address.\n     * @param seq a sequencing number included by the from address specific to this contract to protect from replays.\n     * @param deadline a block number after which the pre-signed transaction has expired.\n     * @return A boolean that indicates if the operation was successful.\n     */\n    function betaDelegatedTransfer(\n        bytes memory sig, address to, uint256 value, uint256 fee, uint256 seq, uint256 deadline\n    ) public returns (bool) {\n        require(sig.length == 65, \"signature should have length 65\");\n        bytes32 r;\n        bytes32 s;\n        uint8 v;\n        assembly {\n            r := mload(add(sig, 32))\n            s := mload(add(sig, 64))\n            v := byte(0, mload(add(sig, 96)))\n        }\n        require(_betaDelegatedTransfer(r, s, v, to, value, fee, seq, deadline), \"failed transfer\");\n        return true;\n    }\n\n    /**\n     * @dev Performs a transfer on behalf of the from address, identified by its signature on the betaDelegatedTransfer msg.\n     * Note: both the delegate and transactor sign in the fees. The transactor, however,\n     * has no control over the gas price, and therefore no control over the transaction time.\n     * Beta prefix chosen to avoid a name clash with an emerging standard in ERC865 or elsewhere.\n     * Internal to the contract - see betaDelegatedTransfer and betaDelegatedTransferBatch.\n     * @param r the r signature of the delgatedTransfer msg.\n     * @param s the s signature of the delgatedTransfer msg.\n     * @param v the v signature of the delgatedTransfer msg.\n     * @param to The address to transfer to.\n     * @param value The amount to be transferred.\n     * @param fee an optional ERC20 fee paid to the delegate of betaDelegatedTransfer by the from address.\n     * @param seq a sequencing number included by the from address specific to this contract to protect from replays.\n     * @param deadline a block number after which the pre-signed transaction has expired.\n     * @return A boolean that indicates if the operation was successful.\n     */\n    function _betaDelegatedTransfer(\n        bytes32 r, bytes32 s, uint8 v, address to, uint256 value, uint256 fee, uint256 seq, uint256 deadline\n    ) internal whenNotPaused returns (bool) {\n        require(betaDelegateWhitelist[msg.sender], \"Beta feature only accepts whitelisted delegates\");\n        require(value > 0 || fee > 0, \"cannot transfer zero tokens with zero fee\");\n        require(block.number <= deadline, \"transaction expired\");\n        // prevent sig malleability from ecrecover()\n        require(uint256(s) <= 0x7FFFFFFFFFFFFFFFFFFFFFFFFFFFFFFF5D576E7357A4501DDFE92F46681B20A0, \"signature incorrect\");\n        require(v == 27 || v == 28, \"signature incorrect\");\n\n        // EIP712 scheme: https://github.com/ethereum/EIPs/blob/master/EIPS/eip-712.md\n        bytes32 delegatedTransferHash = keccak256(abi.encodePacked(// solium-disable-line\n                EIP712_DELEGATED_TRANSFER_SCHEMA_HASH, to, value, fee, seq, deadline\n            ));\n        bytes32 hash = keccak256(abi.encodePacked(EIP191_HEADER, EIP712_DOMAIN_HASH, delegatedTransferHash));\n        address _from = ecrecover(hash, v, r, s);\n\n        require(_from != address(0), \"error determining from address from signature\");\n        require(to != address(0), \"canno use address zero\");\n        require(!frozen[to] && !frozen[_from] && !frozen[msg.sender], \"address frozen\");\n        require(value.add(fee) <= balances[_from], \"insufficent fund\");\n        require(nextSeqs[_from] == seq, \"incorrect seq\");\n\n        nextSeqs[_from] = nextSeqs[_from].add(1);\n        balances[_from] = balances[_from].sub(value.add(fee));\n\n        if (fee != 0) {\n            balances[msg.sender] = balances[msg.sender].add(fee);\n            emit Transfer(_from, msg.sender, fee);\n        }\n\n        balances[to] = balances[to].add(value);\n        emit Transfer(_from, to, value);\n\n        emit BetaDelegatedTransfer(_from, to, value, seq, fee);\n        return true;\n    }\n\n    /**\n     * @dev Performs an atomic batch of transfers on behalf of the from addresses, identified by their signatures.\n     * Lack of nested array support in arguments requires all arguments to be passed as equal size arrays where\n     * delegated transfer number i is the combination of all arguments at index i\n     * @param r the r signatures of the delgatedTransfer msg.\n     * @param s the s signatures of the delgatedTransfer msg.\n     * @param v the v signatures of the delgatedTransfer msg.\n     * @param to The addresses to transfer to.\n     * @param value The amounts to be transferred.\n     * @param fee optional ERC20 fees paid to the delegate of betaDelegatedTransfer by the from address.\n     * @param seq sequencing numbers included by the from address specific to this contract to protect from replays.\n     * @param deadline block numbers after which the pre-signed transactions have expired.\n     * @return A boolean that indicates if the operation was successful.\n     */\n    function betaDelegatedTransferBatch(\n        bytes32[] memory r, bytes32[] memory s, uint8[] memory v, address[] memory to, uint256[] memory value, uint256[] memory fee, uint256[] memory seq, uint256[] memory deadline\n    ) public returns (bool) {\n        require(r.length == s.length && r.length == v.length && r.length == to.length && r.length == value.length, \"length mismatch\");\n        require(r.length == fee.length && r.length == seq.length && r.length == deadline.length, \"length mismatch\");\n\n        for (uint i = 0; i < r.length; i++) {\n            require(\n                _betaDelegatedTransfer(r[i], s[i], v[i], to[i], value[i], fee[i], seq[i], deadline[i]),\n                \"failed transfer\"\n            );\n        }\n        return true;\n    }\n\n    /**\n    * @dev Gets whether the address is currently whitelisted for betaDelegateTransfer.\n    * @param _addr The address to check if whitelisted.\n    * @return A bool representing whether the given address is whitelisted.\n    */\n    function isWhitelistedBetaDelegate(address _addr) public view returns (bool) {\n        return betaDelegateWhitelist[_addr];\n    }\n\n    /**\n     * @dev Sets a new betaDelegate whitelister.\n     * @param _newWhitelister The address allowed to whitelist betaDelegates.\n     */\n    function setBetaDelegateWhitelister(address _newWhitelister) public {\n        require(msg.sender == betaDelegateWhitelister || msg.sender == owner, \"only Whitelister or Owner\");\n        betaDelegateWhitelister = _newWhitelister;\n        emit BetaDelegateWhitelisterSet(betaDelegateWhitelister, _newWhitelister);\n    }\n\n    modifier onlyBetaDelegateWhitelister() {\n        require(msg.sender == betaDelegateWhitelister, \"onlyBetaDelegateWhitelister\");\n        _;\n    }\n\n    /**\n     * @dev Whitelists an address to allow calling BetaDelegatedTransfer.\n     * @param _addr The new address to whitelist.\n     */\n    function whitelistBetaDelegate(address _addr) public onlyBetaDelegateWhitelister {\n        require(!betaDelegateWhitelist[_addr], \"delegate already whitelisted\");\n        betaDelegateWhitelist[_addr] = true;\n        emit BetaDelegateWhitelisted(_addr);\n    }\n\n    /**\n     * @dev Unwhitelists an address to disallow calling BetaDelegatedTransfer.\n     * @param _addr The new address to whitelist.\n     */\n    function unwhitelistBetaDelegate(address _addr) public onlyBetaDelegateWhitelister {\n        require(betaDelegateWhitelist[_addr], \"delegate not whitelisted\");\n        betaDelegateWhitelist[_addr] = false;\n        emit BetaDelegateUnwhitelisted(_addr);\n    }\n}\n",
  "sourcePath": "F:/workBlockchain/demo/busd_stacking/contracts/BUSDToken.sol",
  "compiler": {
    "name": "solc",
    "version": "0.8.4+commit.c7e474f2.Emscripten.clang"
  },
  "schemaVersion": "3.4.1",
  "updatedAt": "2021-05-10T23:15:09.349Z",
  "networkType": "ethereum",
  "devdoc": {
    "details": "this contract is a Pausable ERC20 token with Burn and Mint controlled by a central SupplyController. By implementing BUSDToken this contract also includes external methods for setting a new implementation contract for the Proxy. NOTE: The storage defined here will actually be held in the Proxy contract and all calls to this contract should be made through the proxy, including admin actions done as owner or supplyController. Any call to transfer against this contract should fail with insufficient funds since no tokens will be issued there.",
    "kind": "dev",
    "methods": {
      "allowance(address,address)": {
        "details": "Function to check the amount of tokens that an owner allowed to a spender.",
        "params": {
          "_owner": "address The address which owns the funds.",
          "_spender": "address The address which will spend the funds."
        },
        "returns": {
          "_0": "A uint256 specifying the amount of tokens still available for the spender."
        }
      },
      "approve(address,uint256)": {
        "details": "Approve the passed address to spend the specified amount of tokens on behalf of msg.sender. Beware that changing an allowance with this method brings the risk that someone may use both the old and the new allowance by unfortunate transaction ordering. One possible solution to mitigate this race condition is to first reduce the spender's allowance to 0 and set the desired value afterwards: https://github.com/ethereum/EIPs/issues/20#issuecomment-263524729",
        "params": {
          "_spender": "The address which will spend the funds.",
          "_value": "The amount of tokens to be spent."
        }
      },
      "balanceOf(address)": {
        "details": "Gets the balance of the specified address.",
        "params": {
          "_addr": "The address to query the the balance of."
        },
        "returns": {
          "_0": "An uint256 representing the amount owned by the passed address."
        }
      },
      "betaDelegatedTransfer(bytes,address,uint256,uint256,uint256,uint256)": {
        "details": "Performs a transfer on behalf of the from address, identified by its signature on the delegatedTransfer msg. Splits a signature byte array into r,s,v for convenience.",
        "params": {
          "deadline": "a block number after which the pre-signed transaction has expired.",
          "fee": "an optional ERC20 fee paid to the executor of betaDelegatedTransfer by the from address.",
          "seq": "a sequencing number included by the from address specific to this contract to protect from replays.",
          "sig": "the signature of the delgatedTransfer msg.",
          "to": "The address to transfer to.",
          "value": "The amount to be transferred."
        },
        "returns": {
          "_0": "A boolean that indicates if the operation was successful."
        }
      },
      "betaDelegatedTransferBatch(bytes32[],bytes32[],uint8[],address[],uint256[],uint256[],uint256[],uint256[])": {
        "details": "Performs an atomic batch of transfers on behalf of the from addresses, identified by their signatures. Lack of nested array support in arguments requires all arguments to be passed as equal size arrays where delegated transfer number i is the combination of all arguments at index i",
        "params": {
          "deadline": "block numbers after which the pre-signed transactions have expired.",
          "fee": "optional ERC20 fees paid to the delegate of betaDelegatedTransfer by the from address.",
          "r": "the r signatures of the delgatedTransfer msg.",
          "s": "the s signatures of the delgatedTransfer msg.",
          "seq": "sequencing numbers included by the from address specific to this contract to protect from replays.",
          "to": "The addresses to transfer to.",
          "v": "the v signatures of the delgatedTransfer msg.",
          "value": "The amounts to be transferred."
        },
        "returns": {
          "_0": "A boolean that indicates if the operation was successful."
        }
      },
      "claimOwnership()": {
        "details": "Allows the proposed owner to complete transferring control of the contract to the proposedOwner."
      },
      "disregardProposeOwner()": {
        "details": "Allows the current owner or proposed owner to cancel transferring control of the contract to a proposedOwner"
      },
      "freeze(address)": {
        "details": "Freezes an address balance from being transferred.",
        "params": {
          "_addr": "The new address to freeze."
        }
      },
      "initialize()": {
        "details": "sets 0 initials tokens, the owner, and the supplyController. this serves as the constructor for the proxy but compiles to the memory model of the Implementation contract."
      },
      "initializeDomainSeparator()": {
        "details": "To be called when upgrading the contract using upgradeAndCall to add delegated transfers"
      },
      "isFrozen(address)": {
        "details": "Gets whether the address is currently frozen.",
        "params": {
          "_addr": "The address to check if frozen."
        },
        "returns": {
          "_0": "A bool representing whether the given address is frozen."
        }
      },
      "isWhitelistedBetaDelegate(address)": {
        "details": "Gets whether the address is currently whitelisted for betaDelegateTransfer.",
        "params": {
          "_addr": "The address to check if whitelisted."
        },
        "returns": {
          "_0": "A bool representing whether the given address is whitelisted."
        }
      },
      "nextSeqOf(address)": {
        "details": "returns the next seq for a target address. The transactor must submit nextSeqOf(transactor) in the next transaction for it to be valid. Note: that the seq context is specific to this smart contract.",
        "params": {
          "target": "The target address."
        },
        "returns": {
          "_0": "the seq."
        }
      },
      "pause()": {
        "details": "called by the owner to pause, triggers stopped state"
      },
      "proposeOwner(address)": {
        "details": "Allows the current owner to begin transferring control of the contract to a proposedOwner",
        "params": {
          "_proposedOwner": "The address to transfer ownership to."
        }
      },
      "reclaimBUSD()": {
        "details": "Reclaim all BUSD at the contract address. This sends the BUSD tokens that this contract add holding to the owner. Note: this is not affected by freeze constraints."
      },
      "setAssetProtectionRole(address)": {
        "details": "Sets a new asset Protection role address.",
        "params": {
          "_newAssetProtectionRole": "The new address allowed to freeze/unfreeze addresses and seize their tokens."
        }
      },
      "setBetaDelegateWhitelister(address)": {
        "details": "Sets a new betaDelegate whitelister.",
        "params": {
          "_newWhitelister": "The address allowed to whitelist betaDelegates."
        }
      },
      "setSupplyController(address)": {
        "details": "Sets a new supply controller address.",
        "params": {
          "_newSupplyController": "The address allowed to burn/mint tokens to control supply."
        }
      },
      "totalSupply()": {
        "details": "Total number of tokens in existence"
      },
      "transfer(address,uint256)": {
        "details": "Transfer token to a specified address from msg.sender Note: the use of Safemath ensures that _value is nonnegative.",
        "params": {
          "_to": "The address to transfer to.",
          "_value": "The amount to be transferred."
        }
      },
      "transferFrom(address,address,uint256)": {
        "details": "Transfer tokens from one address to another",
        "params": {
          "_from": "address The address which you want to send tokens from",
          "_to": "address The address which you want to transfer to",
          "_value": "uint256 the amount of tokens to be transferred"
        }
      },
      "unfreeze(address)": {
        "details": "Unfreezes an address balance allowing transfer.",
        "params": {
          "_addr": "The new address to unfreeze."
        }
      },
      "unpause()": {
        "details": "called by the owner to unpause, returns to normal state"
      },
      "unwhitelistBetaDelegate(address)": {
        "details": "Unwhitelists an address to disallow calling BetaDelegatedTransfer.",
        "params": {
          "_addr": "The new address to whitelist."
        }
      },
      "whitelistBetaDelegate(address)": {
        "details": "Whitelists an address to allow calling BetaDelegatedTransfer.",
        "params": {
          "_addr": "The new address to whitelist."
        }
      },
      "wipeFrozenAddress(address)": {
        "details": "Wipes the balance of a frozen address, burning the tokens and setting the approval to zero.",
        "params": {
          "_addr": "The new frozen address to wipe."
        }
      }
    },
    "title": "BUSDToken",
    "version": 1
  },
  "userdoc": {
    "events": {
      "Transfer(address,address,uint256)": {
        "notice": "EVENTS"
      }
    },
    "kind": "user",
    "methods": {
      "constructor": {
        "notice": "The constructor is used here to ensure that the implementation contract is initialized. An uncontrolled implementation contract might lead to misleading state for users who accidentally interact with it."
      }
    },
    "version": 1
  }
}